{
  "_format": "hh-sol-artifact-1",
  "contractName": "MultiSig",
  "sourceName": "contracts/MultiSig.sol",
  "abi": [
    {
      "inputs": [
        {
          "internalType": "uint8",
          "name": "_quorum",
          "type": "uint8"
        },
        {
          "internalType": "address[]",
          "name": "_validSigners",
          "type": "address[]"
        }
      ],
      "stateMutability": "nonpayable",
      "type": "constructor"
    },
    {
      "anonymous": false,
      "inputs": [
        {
          "indexed": false,
          "internalType": "uint256",
          "name": "newQuorum",
          "type": "uint256"
        }
      ],
      "name": "QuorumUpdated",
      "type": "event"
    },
    {
      "inputs": [
        {
          "internalType": "uint8",
          "name": "_txId",
          "type": "uint8"
        }
      ],
      "name": "approveTx",
      "outputs": [],
      "stateMutability": "nonpayable",
      "type": "function"
    },
    {
      "inputs": [],
      "name": "noOfValidSigners",
      "outputs": [
        {
          "internalType": "uint8",
          "name": "",
          "type": "uint8"
        }
      ],
      "stateMutability": "view",
      "type": "function"
    },
    {
      "inputs": [],
      "name": "quorum",
      "outputs": [
        {
          "internalType": "uint8",
          "name": "",
          "type": "uint8"
        }
      ],
      "stateMutability": "view",
      "type": "function"
    },
    {
      "inputs": [
        {
          "internalType": "uint256",
          "name": "_amount",
          "type": "uint256"
        },
        {
          "internalType": "address",
          "name": "_recipient",
          "type": "address"
        },
        {
          "internalType": "address",
          "name": "_tokenAddress",
          "type": "address"
        }
      ],
      "name": "transfer",
      "outputs": [],
      "stateMutability": "nonpayable",
      "type": "function"
    },
    {
      "inputs": [],
      "name": "txCount",
      "outputs": [
        {
          "internalType": "uint256",
          "name": "",
          "type": "uint256"
        }
      ],
      "stateMutability": "view",
      "type": "function"
    },
    {
      "inputs": [
        {
          "internalType": "uint8",
          "name": "_newQuorum",
          "type": "uint8"
        }
      ],
      "name": "updateQuorum",
      "outputs": [],
      "stateMutability": "nonpayable",
      "type": "function"
    }
  ],
  "bytecode": "0x60806040523480156200001157600080fd5b5060405162001fbe38038062001fbe833981810160405281019062000037919062000645565b60018151116200007e576040517f08c379a000000000000000000000000000000000000000000000000000000000815260040162000075906200070c565b60405180910390fd5b60018260ff1611620000c7576040517f08c379a0000000000000000000000000000000000000000000000000000000008152600401620000be906200077e565b60405180910390fd5b60005b81518110156200029b57600073ffffffffffffffffffffffffffffffffffffffff16828281518110620001025762000101620007a0565b5b602002602001015173ffffffffffffffffffffffffffffffffffffffff160362000163576040517f08c379a00000000000000000000000000000000000000000000000000000000081526004016200015a906200081f565b60405180910390fd5b600260008383815181106200017d576200017c620007a0565b5b602002602001015173ffffffffffffffffffffffffffffffffffffffff1673ffffffffffffffffffffffffffffffffffffffff16815260200190815260200160002060009054906101000a900460ff161562000210576040517f08c379a0000000000000000000000000000000000000000000000000000000008152600401620002079062000891565b60405180910390fd5b6001600260008484815181106200022c576200022b620007a0565b5b602002602001015173ffffffffffffffffffffffffffffffffffffffff1673ffffffffffffffffffffffffffffffffffffffff16815260200190815260200160002060006101000a81548160ff02191690831515021790555080806200029290620008ec565b915050620000ca565b508051600060016101000a81548160ff021916908360ff160217905550600260003373ffffffffffffffffffffffffffffffffffffffff1673ffffffffffffffffffffffffffffffffffffffff16815260200190815260200160002060009054906101000a900460ff166200039c576001600260003373ffffffffffffffffffffffffffffffffffffffff1673ffffffffffffffffffffffffffffffffffffffff16815260200190815260200160002060006101000a81548160ff0219169083151502179055506001600060018282829054906101000a900460ff1662000383919062000939565b92506101000a81548160ff021916908360ff1602179055505b600060019054906101000a900460ff1660ff168260ff161115620003f7576040517f08c379a0000000000000000000000000000000000000000000000000000000008152600401620003ee90620009eb565b60405180910390fd5b816000806101000a81548160ff021916908360ff160217905550505062000a0d565b6000604051905090565b600080fd5b600080fd5b600060ff82169050919050565b62000445816200042d565b81146200045157600080fd5b50565b60008151905062000465816200043a565b92915050565b600080fd5b6000601f19601f8301169050919050565b7f4e487b7100000000000000000000000000000000000000000000000000000000600052604160045260246000fd5b620004bb8262000470565b810181811067ffffffffffffffff82111715620004dd57620004dc62000481565b5b80604052505050565b6000620004f262000419565b9050620005008282620004b0565b919050565b600067ffffffffffffffff82111562000523576200052262000481565b5b602082029050602081019050919050565b600080fd5b600073ffffffffffffffffffffffffffffffffffffffff82169050919050565b6000620005668262000539565b9050919050565b620005788162000559565b81146200058457600080fd5b50565b60008151905062000598816200056d565b92915050565b6000620005b5620005af8462000505565b620004e6565b90508083825260208201905060208402830185811115620005db57620005da62000534565b5b835b81811015620006085780620005f3888262000587565b845260208401935050602081019050620005dd565b5050509392505050565b600082601f8301126200062a57620006296200046b565b5b81516200063c8482602086016200059e565b91505092915050565b600080604083850312156200065f576200065e62000423565b5b60006200066f8582860162000454565b925050602083015167ffffffffffffffff81111562000693576200069262000428565b5b620006a18582860162000612565b9150509250929050565b600082825260208201905092915050565b7f6665772076616c6964207369676e657200000000000000000000000000000000600082015250565b6000620006f4601083620006ab565b91506200070182620006bc565b602082019050919050565b600060208201905081810360008301526200072781620006e5565b9050919050565b7f71756f72756d20697320746f6f20736d616c6c00000000000000000000000000600082015250565b600062000766601383620006ab565b915062000773826200072e565b602082019050919050565b60006020820190508181036000830152620007998162000757565b9050919050565b7f4e487b7100000000000000000000000000000000000000000000000000000000600052603260045260246000fd5b7f7a65726f2061646472657373206e6f7420616c6c6f7765640000000000000000600082015250565b600062000807601883620006ab565b91506200081482620007cf565b602082019050919050565b600060208201905081810360008301526200083a81620007f8565b9050919050565b7f7369676e657220616c7265616479206578697374000000000000000000000000600082015250565b600062000879601483620006ab565b9150620008868262000841565b602082019050919050565b60006020820190508181036000830152620008ac816200086a565b9050919050565b7f4e487b7100000000000000000000000000000000000000000000000000000000600052601160045260246000fd5b6000819050919050565b6000620008f982620008e2565b91507fffffffffffffffffffffffffffffffffffffffffffffffffffffffffffffffff82036200092e576200092d620008b3565b5b600182019050919050565b600062000946826200042d565b915062000953836200042d565b9250828201905060ff8111156200096f576200096e620008b3565b5b92915050565b7f71756f72756d2069732067726561746572207468616e2076616c69642073696760008201527f6e65727300000000000000000000000000000000000000000000000000000000602082015250565b6000620009d3602483620006ab565b9150620009e08262000975565b604082019050919050565b6000602082019050818103600083015262000a0681620009c4565b9050919050565b6115a18062000a1d6000396000f3fe608060405234801561001057600080fd5b50600436106100625760003560e01c80631703a0181461006757806317eff51b146100855780632f430e17146100a35780633c540687146100bf578063ccb570e3146100dd578063d40cfc51146100f9575b600080fd5b61006f610115565b60405161007c9190610d53565b60405180910390f35b61008d610126565b60405161009a9190610d53565b60405180910390f35b6100bd60048036038101906100b89190610d9f565b610139565b005b6100c7610648565b6040516100d49190610de5565b60405180910390f35b6100f760048036038101906100f29190610e8a565b61064e565b005b610113600480360381019061010e9190610d9f565b610b3d565b005b60008054906101000a900460ff1681565b600060019054906101000a900460ff1681565b6000600360008360ff1681526020019081526020016000209050600081600001540361019a576040517f08c379a000000000000000000000000000000000000000000000000000000000815260040161019190610f3a565b60405180910390fd5b80600101548160060160009054906101000a900473ffffffffffffffffffffffffffffffffffffffff1673ffffffffffffffffffffffffffffffffffffffff166370a08231306040518263ffffffff1660e01b81526004016101fc9190610f69565b602060405180830381865afa158015610219573d6000803e3d6000fd5b505050506040513d601f19601f8201168201806040525081019061023d9190610f99565b101561027e576040517f08c379a000000000000000000000000000000000000000000000000000000000815260040161027590611012565b60405180910390fd5b8060030160149054906101000a900460ff16156102d0576040517f08c379a00000000000000000000000000000000000000000000000000000000081526004016102c79061107e565b60405180910390fd5b60008054906101000a900460ff1660ff16816005015410610326576040517f08c379a000000000000000000000000000000000000000000000000000000000815260040161031d906110ea565b60405180910390fd5b600260003373ffffffffffffffffffffffffffffffffffffffff1673ffffffffffffffffffffffffffffffffffffffff16815260200190815260200160002060009054906101000a900460ff166103b2576040517f08c379a00000000000000000000000000000000000000000000000000000000081526004016103a990611156565b60405180910390fd5b600460003373ffffffffffffffffffffffffffffffffffffffff1673ffffffffffffffffffffffffffffffffffffffff16815260200190815260200160002060008360ff16815260200190815260200160002060009054906101000a900460ff1615610453576040517f08c379a000000000000000000000000000000000000000000000000000000000815260040161044a906111c2565b60405180910390fd5b6001600460003373ffffffffffffffffffffffffffffffffffffffff1673ffffffffffffffffffffffffffffffffffffffff16815260200190815260200160002060008460ff16815260200190815260200160002060006101000a81548160ff02191690831515021790555060018160050160008282546104d49190611211565b9250508190555080600701339080600181540180825580915050600190039060005260206000200160009091909190916101000a81548173ffffffffffffffffffffffffffffffffffffffff021916908373ffffffffffffffffffffffffffffffffffffffff16021790555060008054906101000a900460ff1660ff168160050154036106445760018160030160146101000a81548160ff0219169083151502179055508060060160009054906101000a900473ffffffffffffffffffffffffffffffffffffffff1673ffffffffffffffffffffffffffffffffffffffff1663a9059cbb8260030160009054906101000a900473ffffffffffffffffffffffffffffffffffffffff1683600101546040518363ffffffff1660e01b81526004016105ff929190611245565b6020604051808303816000875af115801561061e573d6000803e3d6000fd5b505050506040513d601f19601f8201168201806040525081019061064291906112a6565b505b5050565b60015481565b600073ffffffffffffffffffffffffffffffffffffffff163373ffffffffffffffffffffffffffffffffffffffff16036106bd576040517f08c379a00000000000000000000000000000000000000000000000000000000081526004016106b49061131f565b60405180910390fd5b600260003373ffffffffffffffffffffffffffffffffffffffff1673ffffffffffffffffffffffffffffffffffffffff16815260200190815260200160002060009054906101000a900460ff16610749576040517f08c379a00000000000000000000000000000000000000000000000000000000081526004016107409061138b565b60405180910390fd5b6000831161078c576040517f08c379a0000000000000000000000000000000000000000000000000000000008152600401610783906113f7565b60405180910390fd5b600073ffffffffffffffffffffffffffffffffffffffff168273ffffffffffffffffffffffffffffffffffffffff16036107fb576040517f08c379a00000000000000000000000000000000000000000000000000000000081526004016107f29061131f565b60405180910390fd5b600073ffffffffffffffffffffffffffffffffffffffff168173ffffffffffffffffffffffffffffffffffffffff160361086a576040517f08c379a00000000000000000000000000000000000000000000000000000000081526004016108619061131f565b60405180910390fd5b828173ffffffffffffffffffffffffffffffffffffffff166370a08231306040518263ffffffff1660e01b81526004016108a49190610f69565b602060405180830381865afa1580156108c1573d6000803e3d6000fd5b505050506040513d601f19601f820116820180604052508101906108e59190610f99565b1015610926576040517f08c379a000000000000000000000000000000000000000000000000000000000815260040161091d90611012565b60405180910390fd5b6000600180546109369190611211565b90506000600360008381526020019081526020016000209050818160000181905550848160010181905550838160030160006101000a81548173ffffffffffffffffffffffffffffffffffffffff021916908373ffffffffffffffffffffffffffffffffffffffff160217905550338160020160006101000a81548173ffffffffffffffffffffffffffffffffffffffff021916908373ffffffffffffffffffffffffffffffffffffffff160217905550428160040181905550828160060160006101000a81548173ffffffffffffffffffffffffffffffffffffffff021916908373ffffffffffffffffffffffffffffffffffffffff1602179055506001816005016000828254610a489190611211565b9250508190555080600701339080600181540180825580915050600190039060005260206000200160009091909190916101000a81548173ffffffffffffffffffffffffffffffffffffffff021916908373ffffffffffffffffffffffffffffffffffffffff1602179055506001600460003373ffffffffffffffffffffffffffffffffffffffff1673ffffffffffffffffffffffffffffffffffffffff168152602001908152602001600020600084815260200190815260200160002060006101000a81548160ff0219169083151502179055506001806000828254610b2f9190611211565b925050819055505050505050565b600073ffffffffffffffffffffffffffffffffffffffff163373ffffffffffffffffffffffffffffffffffffffff1603610bac576040517f08c379a0000000000000000000000000000000000000000000000000000000008152600401610ba39061131f565b60405180910390fd5b600260003373ffffffffffffffffffffffffffffffffffffffff1673ffffffffffffffffffffffffffffffffffffffff16815260200190815260200160002060009054906101000a900460ff16610c38576040517f08c379a0000000000000000000000000000000000000000000000000000000008152600401610c2f9061138b565b60405180910390fd5b600060019054906101000a900460ff1660ff1660008054906101000a900460ff1660ff161115610c9d576040517f08c379a0000000000000000000000000000000000000000000000000000000008152600401610c9490611489565b60405180910390fd5b60008160ff1611610ce3576040517f08c379a0000000000000000000000000000000000000000000000000000000008152600401610cda906114f5565b60405180910390fd5b806000806101000a81548160ff021916908360ff1602179055507ff18f88786aae85a652aadb99a82462616489a33370c9bcc7b245906812ef7cd181604051610d2c9190611550565b60405180910390a150565b600060ff82169050919050565b610d4d81610d37565b82525050565b6000602082019050610d686000830184610d44565b92915050565b600080fd5b610d7c81610d37565b8114610d8757600080fd5b50565b600081359050610d9981610d73565b92915050565b600060208284031215610db557610db4610d6e565b5b6000610dc384828501610d8a565b91505092915050565b6000819050919050565b610ddf81610dcc565b82525050565b6000602082019050610dfa6000830184610dd6565b92915050565b610e0981610dcc565b8114610e1457600080fd5b50565b600081359050610e2681610e00565b92915050565b600073ffffffffffffffffffffffffffffffffffffffff82169050919050565b6000610e5782610e2c565b9050919050565b610e6781610e4c565b8114610e7257600080fd5b50565b600081359050610e8481610e5e565b92915050565b600080600060608486031215610ea357610ea2610d6e565b5b6000610eb186828701610e17565b9350506020610ec286828701610e75565b9250506040610ed386828701610e75565b9150509250925092565b600082825260208201905092915050565b7f696e76616c696420747820696400000000000000000000000000000000000000600082015250565b6000610f24600d83610edd565b9150610f2f82610eee565b602082019050919050565b60006020820190508181036000830152610f5381610f17565b9050919050565b610f6381610e4c565b82525050565b6000602082019050610f7e6000830184610f5a565b92915050565b600081519050610f9381610e00565b92915050565b600060208284031215610faf57610fae610d6e565b5b6000610fbd84828501610f84565b91505092915050565b7f696e73756666696369656e742066756e64730000000000000000000000000000600082015250565b6000610ffc601283610edd565b915061100782610fc6565b602082019050919050565b6000602082019050818103600083015261102b81610fef565b9050919050565b7f7472616e73616374696f6e20616c726561647920636f6d706c65746564000000600082015250565b6000611068601d83610edd565b915061107382611032565b602082019050919050565b600060208201905081810360008301526110978161105b565b9050919050565b7f617070726f76616c7320616c7265616479207265616368656400000000000000600082015250565b60006110d4601983610edd565b91506110df8261109e565b602082019050919050565b60006020820190508181036000830152611103816110c7565b9050919050565b7f6e6f7420612076616c6964207369676e65720000000000000000000000000000600082015250565b6000611140601283610edd565b915061114b8261110a565b602082019050919050565b6000602082019050818103600083015261116f81611133565b9050919050565b7f63616e2774207369676e20747769636500000000000000000000000000000000600082015250565b60006111ac601083610edd565b91506111b782611176565b602082019050919050565b600060208201905081810360008301526111db8161119f565b9050919050565b7f4e487b7100000000000000000000000000000000000000000000000000000000600052601160045260246000fd5b600061121c82610dcc565b915061122783610dcc565b925082820190508082111561123f5761123e6111e2565b5b92915050565b600060408201905061125a6000830185610f5a565b6112676020830184610dd6565b9392505050565b60008115159050919050565b6112838161126e565b811461128e57600080fd5b50565b6000815190506112a08161127a565b92915050565b6000602082840312156112bc576112bb610d6e565b5b60006112ca84828501611291565b91505092915050565b7f61646472657373207a65726f20666f756e640000000000000000000000000000600082015250565b6000611309601283610edd565b9150611314826112d3565b602082019050919050565b60006020820190508181036000830152611338816112fc565b9050919050565b7f696e76616c6964207369676e6572000000000000000000000000000000000000600082015250565b6000611375600e83610edd565b91506113808261133f565b602082019050919050565b600060208201905081810360008301526113a481611368565b9050919050565b7f63616e6e6f742073656e64207a65726f20616d6f756e74000000000000000000600082015250565b60006113e1601783610edd565b91506113ec826113ab565b602082019050919050565b60006020820190508181036000830152611410816113d4565b9050919050565b7f71756f72756d2069732067726561746572207468616e2076616c69642073696760008201527f6e65727300000000000000000000000000000000000000000000000000000000602082015250565b6000611473602483610edd565b915061147e82611417565b604082019050919050565b600060208201905081810360008301526114a281611466565b9050919050565b7f51756f72756d206d7573742062652067726561746572207468616e2030000000600082015250565b60006114df601d83610edd565b91506114ea826114a9565b602082019050919050565b6000602082019050818103600083015261150e816114d2565b9050919050565b6000819050919050565b600061153a61153561153084610d37565b611515565b610dcc565b9050919050565b61154a8161151f565b82525050565b60006020820190506115656000830184611541565b9291505056fea2646970667358221220ea7bf2b66d31cbcc85afaed65754a736d0e19ddcec2d81621295b97f9bcc2a7164736f6c63430008140033",
  "linkReferences": {},
  "deployedLinkReferences": {}
}